:020000040800F2
:100000000050002031190008C5180008C718000862
:10001000C9180008CB180008CD180008000000001F
:10002000000000000000000000000000CF180008E1
:10003000D118000800000000D3180008D5180008E7
:100040007919000879190008791900087919000848
:100050007919000879190008791900087919000838
:100060007919000879190008791900087919000828
:100070007919000879190008791900087919000818
:100080007919000879190008791900087919000808
:1000900079190008791900087919000879190008F8
:1000A00079190008791900087919000879190008E8
:1000B00079190008791900087919000879190008D8
:1000C00079190008791900087919000879190008C8
:1000D00079190008791900087919000879190008B8
:1000E0007919000879190008791900080000000042
:1000F0000000000000000000000000000000000000
:0C01000000000000000000005FF808F1A3
:10010C0010B5054C237833B9044B13B10448AFF345
:10011C0000800123237010BD0C00002000000000A3
:10012C00EC19000808B5034B1BB103490348AFF3A6
:10013C00008008BD0000000010000020EC19000831
:10014C0038B50E4B054618784FF47A73B3FBF0F3C1
:10015C000B4A1068B0FBF3F000F092F8044658B963
:10016C000F2D09D8024629464FF0FF3000F054F805
:10017C00044B20461D6038BD012038BD0000002016
:10018C000800002004000020074A08B5136803206B
:10019C0043F01003136000F02DF80020FFF7D0FFA0
:1001AC0001F0DAFA002008BD00200240034A044B9B
:1001BC0011681B780B441360704700BF28000020A7
:1001CC0000000020014B1868704700BF2800002079
:1001DC0038B50446FFF7F6FF0546631C1EBF044BFB
:1001EC001B78E418FFF7EEFF401B8442FAD838BDA9
:1001FC0000000020074A0002D36800F4E06023F4FA
:10020C00E0631B041B0C43F0BF6343F40033034354
:10021C00D360704700ED00E0174B30B5DC68C4F3D9
:10022C000224C4F10703251D042B28BF0423062D2B
:10023C004FF0010598BF002405FA03F303F1FF33D7
:10024C0088BF033C1940A14005FA04F4013C22404C
:10025C00002842EA01024FEA0212AFBF00F16040EF
:10026C00064B00F00F00D2B2A5BFD2B200F5614030
:10027C001A5480F8002330BD00ED00E014ED00E0CE
:10028C000138B0F1807F0AD2F021064B064A586043
:10029C0082F823100020072298601A607047012012
:1002AC00704700BF10E000E000ED00E0044B0428B4
:1002BC001A680CBF42F0040222F004021A60704764
:1002CC0010E000E0704708B5FFF7FCFF08BD000028
:1002DC002DE9F74F00221646654BDFF8A4E1DFF855
:1002EC00A4C14FF001080C6808FA06F808EA0404E7
:1002FC00A0457FD14D68122D00F0AF8000F28880B0
:10030C00022D00F0A7807CD8002D00F08E80012DEE
:10031C0000F09E804FF00F09FF2C93BF824606F130
:10032C008045083DD0F800B092BFB500D0F804B0BD
:10033C00AD0009FA05F82BEA080802FA05F588BFA2
:10034C0000F1040A48EA0505CAF80050D1F804A0E7
:10035C001AF0805F4ED0474D464FAD6926F003082A
:10036C0045F00105BD61BD6908F1804805F0010546
:10037C00019508F5803806F0030B019D4FEA8B0BB5
:10038C00D8F8085009FA0BF925EA09093A4DA842A0
:10039C0068D005F58065A84266D005F58065A84251
:1003AC0064D005F58065A8420CBF0325042505FA29
:1003BC000BF545EA0905C8F808501D681AF4803F8A
:1003CC0014BF2543A5431D605D681AF4003F14BF9C
:1003DC002543A5435D609D681AF4801F14BF254317
:1003EC00A5439D60DD681AF4001F14BF2C4325EA59
:1003FC000404DC600136102E7FF473AF03B0BDE84B
:10040C00F08F032D22D0112D84D1CA68043281E7DC
:10041C001A4FBD4209D012D8DFF86C904D4504D06C
:10042C0009F580394D457FF475AF8A68C2B1012A50
:10043C000CBFC0F81080C0F8148008226AE775451C
:10044C00F3D06545F1D0DFF84490EBE7002261E78B
:10045C00CA685FE7CA6808325CE7CA680C3259E7B9
:10046C00042257E70025A2E70125A0E702259EE715
:10047C00000401400010024000080140000021105F
:10048C00000031100000321000001110000022108A
:10049C000AB1016170470904FBE7000003682DE90C
:1004AC00F341DB07054610D42B689F075ED42B68FD
:1004BC00190700F195802B685A0700F1BF80EA6993
:1004CC00002A40F02D81002014E0904C636803F06A
:1004DC000C03042B07D0636803F00C03082B0CD11E
:1004EC006368DE0309D523689C03DDD56B68002B9C
:1004FC00DAD1012002B0BDE8F0816B68B3F5803F22
:10050C0010D1236843F480332360FFF75BFE06466B
:10051C0023689803C8D4FFF755FE801B6428F7D9CD
:10052C000320E7E79BB9236823F480332360236817
:10053C0023F480232360FFF745FE064623689903C6
:10054C00B2D5FFF73FFE801B6428F7D9E8E7B3F577
:10055C00A02F236803D143F480232360D1E723F435
:10056C0080332360236823F48023CDE7674C6368D2
:10057C0013F00C0F07D0636803F00C03082B10D199
:10058C006368DA030DD423689B0702D52B69012B12
:10059C00AFD123686A6923F0F80343EAC2032360EE
:1005AC0085E72A695A4B6AB101221A60FFF70AFEE5
:1005BC00064623689F07ECD4FFF704FE801B022835
:1005CC00F7D9ADE71A60FFF7FDFD064623689807DB
:1005DC007FF56DAFFFF7F6FD801B0228F6D99FE77C
:1005EC00AA694A4C4B4BDAB101221A60FFF7EAFDBB
:1005FC000646636A9B070DD54FF4FA52464B1B68AF
:10060C00B3FBF2F3019300BF019B5A1E0192002B26
:10061C00F9D150E7FFF7D6FD801B0228E9D97FE717
:10062C001A60FFF7CFFD0646636A9F077FF543AF5D
:10063C00FFF7C8FD801B0228F6D971E7334CE3693C
:10064C00D80024D40127E36943F08053E361E369C4
:10065C0003F080530093009B304E3368D90518D5B6
:10066C00EB68012B26D1236A43F001032362FFF7C9
:10067C00A9FD41F288368046236A9B073FD5002F9F
:10068C003FF41DAFE36923F08053E36117E70027C4
:10069C00E2E7336843F480733360FFF793FD8046E1
:1006AC003368DA05DCD4FFF78DFDA0EB0800642875
:1006BC00F6D935E7ABB9236A41F2883823F0010348
:1006CC002362236A23F004032362FFF77BFD0646B3
:1006DC00236A9807D3D5FFF775FD801B4045F7D9E2
:1006EC001EE7052B236A03D143F004032362BAE708
:1006FC0023F001032362236A23F00403B6E7FFF718
:10070C0061FDA0EB0800B042B6D909E70010024029
:10071C000000424280044242080000200070004069
:10072C00224C636803F00C03082B3FF4E2AE002369
:10073C001F4E022A33602BD1FFF744FD0746236876
:10074C0099011FD42B6AB3F5803F05D16268A96863
:10075C0022F400320A436260696A62680B4322F435
:10076C0074121343636001233360FFF72BFD0546BE
:10077C0023689A013FF5A7AEFFF724FD401B022822
:10078C00F6D9CDE6FFF71EFDC01B0228D7D9C7E668
:10079C00FFF718FD054623689B017FF594AEFFF724
:1007AC0011FD401B0228F6D9BAE600BF001002402A
:1007BC006000424230B5194B87B002AC03F1100512
:1007CC00224618685968083303C2AB421446F7D165
:1007DC0001238DF80430022311498DF805304B6844
:1007EC0003F00C02082A17D1C3F3834206A8024473
:1007FC00DB0312F8102C0CD54B680A48C3F34043AA
:10080C00504306AA134413F8143CB0FBF3F007B0A2
:10081C0030BD05485043FAE70248F8E7041A0008CF
:10082C000010024000127A0000093D004D4A2DE9EB
:10083C00F0411368054603F007038B420E4628D39C
:10084C002A68910732D4D20738D4464A136803F089
:10085C0007039E4273D32A68434C12F0040F79D1DC
:10086C00130706D563682A6923F4605343EAC2036D
:10087C006360FFF79FFF63683C4AC3F30313D35CC9
:10088C00D8403B4B18600020FFF75AFC0020BDE815
:10089C00F081136823F007030B431360136803F014
:1008AC0007039942CCD00120BDE8F0812E49A868FD
:1008BC004B6823F0F00303434B60C4E76A682A4C8F
:1008CC00012A23681CD113F4003FECD0636841F279
:1008DC00883823F0030313436360FFF773FC6B68E2
:1008EC000746012B14D1636803F00C03042BACD026
:1008FC00FFF768FCC01B4045F5D90320BDE8F0812B
:10090C00022A02D113F0007FDFE713F0020FDCE7BD
:10091C00022B0FD1636803F00C03082B95D0FFF763
:10092C0051FCC01B4045F5D9E7E7FFF74BFCC01B5A
:10093C004045E2D8636813F00C0FF6D185E71368D5
:10094C0023F0070333431360136803F007039E423D
:10095C00A9D180E76368E96823F4E0630B43636023
:10096C007EE700BF0020024000100240481A000839
:10097C0008000020014B1868704700BF08000020D9
:10098C00044B054A5B68C3F30223D35C034A10682B
:10099C00D840704700100240581A00080800002088
:1009AC00044B054A5B68C3F3C223D35C034A10684B
:1009BC00D840704700100240581A00080800002068
:1009CC002DE9F0410446884617461D46069E2268CE
:1009DC00936838EA03030CBF012300239F4202D122
:1009EC000020BDE8F0816B1CF2D055BB23685A681F
:1009FC0022F0E0025A606268B2F5827F0AD1A268E6
:100A0C00B2F5004F02D0B2F5806F03D11A6822F014
:100A1C0040021A60A26AB2F5005F09D11A6822F48A
:100A2C0000521204120C1A601A6842F400521A6036
:100A3C00012384F851300023032084F85030BDE8A2
:100A4C00F081FFF7BFFB801B8542C0D8CEE713B502
:100A5C000B460092802100220446FFF7B1FF20B123
:100A6C000320636D43F02003636502B010BD2DE9D4
:100A7C00FF411E4690F850300446012B0D4690461F
:100A8C0000F09C80012380F85030FFF79BFB074659
:100A9C0094F85100C0B2012840F08E80002D4ED049
:100AAC00B8F1000F4BD0032384F851300023636559
:100ABC00A363A4F83680A387E38763642364A368E5
:100ACC002563B3F5004F2368A4F8348002BF1A687D
:100ADC0042F480421A601A6852065EBF1A6842F0ED
:100AEC0040021A60E268B2F5006F626838D11AB140
:100AFC00E28E92B2012A06D135F8022BDA60E38E2F
:100B0C00013B9BB2E386E38E9BB293B900973346CD
:100B1C00012202212046FFF753FF78B93A463146AD
:100B2C002046FFF794FF002838D02023012063656E
:100B3C0005E023689A689007DED44EB903200123A0
:100B4C0084F85130002384F8503004B0BDE8F081B3
:100B5C00711CD8D0FFF736FBC01B8642D3D8EDE70B
:100B6C001AB1E28E92B2012A06D115F8012B1A7332
:100B7C00E38E013B9BB2E386E38E9BB2002BC5D088
:100B8C0023689A689207F0D4002ED7D0731CF3D048
:100B9C00FFF718FBC01B8642EED8CFE7A36833B92A
:100BAC0003932368DA6803929B680393039B606D3D
:100BBC00003018BF0120C2E70220C0E70220C4E7C2
:100BCC002DE9F043994690F8503085B0012B04463E
:100BDC000D4616460C9F00F0EE80012380F8503035
:100BEC00FFF7F0FA94F851308046DBB2012B6168C4
:100BFC000AD0B1F5827F40F0DC80A268002A40F078
:100C0C00D880042B40F0D580002D4ED0002E4CD037
:100C1C00B9F1000F49D094F85130A663012B04BFF1
:100C2C00052384F8513000236365236463642368CF
:100C3C00A4F83E90A4F836901A68A4F83C9050069C
:100C4C0058BF1A68256358BF42F04002A4F834908C
:100C5C0058BF1A60E268B2F5006F5DD119B1E28E2F
:100C6C0092B2012A06D135F8022BDA60E38E013BF1
:100C7C009BB2E3864FF00109E38E9BB2BBB9E38FC5
:100C8C009BB2A3B9CDF800803B460122022120463D
:100C9C00FFF796FE002835D1424639462046FFF72D
:100CAC00D6FE00287AD02023636501202BE0B9F111
:100CBC00000F0FD0E38E9BB263B123689A68910743
:100CCC0008D54FF0000935F8022BDA60E38E013BB2
:100CDC009BB2E386E38F9BB263B123689A68D20719
:100CEC0008D54FF00109DB6826F8023BE38F013B86
:100CFC009BB2E387781CBFD0FFF764FAA0EB080027
:100D0C008742B9D80320012384F85130002384F89A
:100D1C00503005B0BDE8F08319B1E28E92B2012AD1
:100D2C0006D115F8012B1A73E38E013B9BB2E386B7
:100D3C004FF00109E38E9BB21BB9E38F9BB2002BE2
:100D4C00A0D0B9F1000F0FD0E38E9BB263B1236832
:100D5C009A68910708D54FF000092A7801351A7363
:100D6C00E38E013B9BB2E386E38F9BB26BB12368AE
:100D7C009A68D20709D54FF00109DB68013606F8ED
:100D8C00013CE38F013B9BB2E3877B1CD2D0FFF786
:100D9C0019FAA0EB08008742CCD8B3E7A368002B64
:100DAC00B1D123680390DA6803929B680393039B89
:100DBC00A9E70220A7E70220ABE790F851007047A3
:100DCC0010B50446002834D00023836290F85130CB
:100DDC000BB900F011FD0223216884F851300B6827
:100DEC00A06823F040030B606368A2690343E068CA
:100DFC0003432069034360690343E0690343206AAA
:100E0C000343A06A034302F4007003430B60120C0B
:100E1C00636A02F004021A43E36A4A600B61CB690D
:100E2C00002023F40063CB610123606584F851300A
:100E3C0010BD012010BD00002DE9F0470568C26807
:100E4C002B69016923F4405313432B618368EA68CF
:100E5C000B43416922F4B05222F00C020B431343B2
:100E6C00EB606B69826923F4407313436B61404BF5
:100E7C0081469D424FF0190446D1FFF791FD04FBCA
:100E8C0000F3D9F804604FF06408B600B3FBF6F336
:100E9C00B3FBF8F31E01FFF783FD6043D9F8043070
:100EAC009B00B0FBF3F7FFF77BFD6043D9F80430F0
:100EBC009B00B0FBF3F3B3FBF8F308FB13731B01BC
:100ECC003233B3FBF8F303F0F007FFF769FD60432F
:100EDC00D9F804209200B0FBF2FAFFF761FD6043F1
:100EEC00D9F804309B00B0FBF3F3B3FBF8F308FB29
:100EFC0013A31B013233B3FBF8F303F00F033B4393
:100F0C003344AB60BDE8F087FFF73AFD04FB00F318
:100F1C00D9F804604FF06408B600B3FBF6F3B3FBEA
:100F2C00F8F31E01FFF72CFD6043D9F804309B0049
:100F3C00B0FBF3F7FFF724FD6043D9F804309B00B6
:100F4C00B0FBF3F3B3FBF8F308FB13731B01323361
:100F5C00B3FBF8F303F0F007FFF712FD6043D9F889
:100F6C0004209200B0FBF2FAFFF70AFDB7E700BFCE
:100F7C0000380140F8B504460E4617461D46216858
:100F8C000B6836EA030301D10020F8BD6B1CF7D0C7
:100F9C0095B923680320DA6822F4D072DA605A69B2
:100FAC0022F001025A61202384F8393084F83A3057
:100FBC00002384F83830F8BDFFF704F9C01B8542D4
:100FCC00DDD2E6E710B5044640B390F8393003F0B3
:100FDC00FF021BB980F8382000F042FC2423226861
:100FEC0084F83930D368204623F40053D360FFF7DC
:100FFC0023FF236800201A6922F490421A615A696F
:10100C0022F02A025A61DA6842F40052DA60202394
:10101C00E06384F8393084F83A3010BD012010BDFB
:10102C002DE9F0411F4690F839300446202B0D462F
:10103C0090464ED1002949D0002A47D090F838303C
:10104C00012B46D0012380F838300023C3632123C1
:10105C0080F83930FFF7B6F80646A4F82480A4F8D7
:10106C002680E38C9BB26BB93B463246402120462E
:10107C00FFF780FFA8B9202384F8380084F83930B2
:10108C00BDE8F081E38C3246013B9BB2E384A3685C
:10109C008021B3F5805F20463B460ED1FFF76AFFF7
:1010AC0010B10320BDE8F0812B882268C3F308033C
:1010BC005360236943B90235D3E7FFF75BFF002880
:1010CC00EFD123682A785A600135CAE70120BDE8C0
:1010DC00F0810220BDE8F0814B1E5A42018A5A4130
:1010EC004069FFF7D5B910B504460121FFF7F4FFAD
:1010FC00218860680122BDE81040FFF7C9B910B51E
:10110C0004460121FFF7E8FF218800226068FFF701
:10111C00BFF90120FFF75CF8606821880122FFF716
:10112C00B7F9BDE810406420FFF752B837B5054653
:10113C0002AC04F8011D0021FFF7CEFF4FF47A73C7
:10114C0001222146A869FFF792FCA869FFF735FE3A
:10115C000128FAD103B030BDF8B50E4604461F463F
:10116C00002100681546FFF7B7FF46F080012068A4
:10117C00FFF7DCFF013F6E1E3D44AE4205D12068F7
:10118C000121BDE8F840FFF7A7BF16F8011F206842
:10119C00FFF7CCFFF1E7002130B585B004AC04F8C3
:1011AC00011D05468DF80E10FFF796FF4FF47A736C
:1011BC00224600930DF10E010123A869FFF700FDF3
:1011CC00A869FFF7FAFD0128FAD19DF80F0005B0C8
:1011DC0030BD38B504460068FFF7A8FF2068FFF75C
:1011EC00DAFF054601212068FFF776FF284638BD57
:1011FC0070B504460E46154600210068FFF76CFFDB
:10120C0046F080012068FFF791FF29462068FFF720
:10121C008DFF20680121BDE87040FFF75DBF012BF9
:10122C00F8B505460F4616461C4618D9002100682D
:10123C00FFF752FF39462868FFF778FF013CE4B20C
:10124C00771E34442868FFF7A6FF07F8010FA74262
:10125C00F8D128680121BDE8F840FFF73DBFF8BD83
:10126C0010B5092201210446FFF7C2FF0123637266
:10127C0010BD10B5082201210446FFF7B9FF002369
:10128C00637210BD88220121FFF7B2BF2DE9F04136
:10129C0004460D4690461F469DF81860FFF7E9FF7F
:1012AC000F20FEF795FF2046FFF7ECFF324A05EBC7
:1012BC0045052A44032306212046FFF74DFF2F4BFB
:1012CC00092113F808202046FFF792FF0B22204635
:1012DC001146FFF78DFF23220C212046FFF788FFD4
:1012EC00274BDD5D274B062D9A5D4FEA021237D155
:1012FC000332D2B21D212046FFF77AFF67221E214E
:10130C002046FFF775FF31212046FFF762FF00F002
:10131C00F80242F0050231212046FFF769FF0C224A
:10132C0037212046FFF764FF2046FF221F21FFF7DD
:10133C005FFF204600222021FFF75AFF20460C2297
:10134C002121FFF755FF204601224121FFF750FFD5
:10135C000023204684F80A31BDE8F041FFF780BF36
:10136C00023202F0FE021D212046FFF741FF2A0146
:10137C000732D2B21E21D4E7301A00083D1A0008F9
:10138C00411A0008331A000813B5C47983794279DD
:10139C0001790094FFF77AFF02B010BDFF221221F1
:1013AC00FFF726BF70B504460E4621721546FFF7AF
:1013BC00EBFF84224D212046FFF71AFFFF22242148
:1013CC002046FFF715FF012240212046FFF710FFB2
:1013DC003F2211212046FFF70BFF2046FFF7DEFFCF
:1013EC00324622212046FFF703FF0F212046FFF74C
:1013FC00F0FE0D2102462046FFF7FAFE8D22012158
:10140C002046FFF7F5FE002384F80A311821204608
:10141C00FFF7DFFE430703D503230120637270BD82
:10142C00013D07D12068FFF76AFE2046FFF7ACFFAD
:10143C00284670BD0120FEF7CBFEE7E770B50446E9
:10144C000D4612212046FFF7C4FE430627D504F1B2
:10145C000A064FF480720021304600F0B8FA1021D1
:10146C002046FFF7B6FE0D2102462046FFF7C0FED0
:10147C00A37973B9257A2B46324600212046FFF713
:10148C00CEFE204684F80A51FFF788FF94F80A0133
:10149C0070BD13212046FFF79CFE0546EBE7013D8E
:1014AC0003D00120FEF794FECBE7284670BD2DE952
:1014BC00F8430446894690461F469DF820609DF8E7
:1014CC0024500068FFF70FFE84F8049084F8058020
:1014DC00A771E67125722046BDE8F843FFF754BFAB
:1014EC0070B50E4690F80A41054600F10A012246F5
:1014FC00304600F061FA0023335585F80A31204656
:10150C0070BD4FF4803310B590B0012207930021C9
:10151C0002240E934FF4C01306A8069208910A9267
:10152C000D940F93FEF7BAFF00B1FEE70F23019362
:10153C004FF4806303900590214601A80294049314
:10154C00FFF774F9044600B1FEE7FFF713FA4FF406
:10155C007A73B0FBF3F0FEF793FE0420FEF7A6FEC1
:10156C00224621464FF0FF30FEF756FE10B010BD5C
:10157C00F0B5ADF5117DFEF707FEFFF7C2FF6D4B21
:10158C004FF400519A696C4842F010029A619A69C2
:10159C00002502F010020292029A9A69022442F08B
:1015AC0020029A619A69012702F020020392039AA1
:1015BC009A6942F008029A619A6902F00802049250
:1015CC00049A9A6942F004029A619B69002203F022
:1015DC0004030593059BFEF75BFF00224FF40061AB
:1015EC005648FEF755FF00224FF480715448FEF721
:1015FC004FFF4FF400534DA94F484D9350944E97C5
:10160C004F95FEF765FE4FF400634DA94B484D9383
:10161C0050944E974F95FEF75BFE4FF480734848FD
:10162C004DA94D9350944E974F95FEF751FE4FF4A4
:10163C00E133444C4448A56084E809000C2320465F
:10164C00E56025616361A561E561FFF7BBFC00B155
:10165C00FEE74FF482723D4B3D49986083E80600EB
:10166C004FF400729A611822DA610A22D86018616C
:10167C0058611862586298621846DA62FFF7A0FB4C
:10168C00864600B1FEE70DF1180C6546314ECDF8DB
:10169C0034C10FCE0FC596E80700072385E8070075
:1016AC00062571468DE828003A462B464DA8FFF7D3
:1016BC00FEFE29464FF4FA624DA8FFF773FE1E4D4D
:1016CC004FF4FA614DA8FFF7B9FE064668B302461F
:1016DC000DA94DA8FFF704FF01224FF40051284635
:1016EC00FEF7D6FE6420FEF773FD00224FF4005186
:1016FC002846FEF7CDFE6420FEF76AFD01224FF46A
:10170C0000512846FEF7C4FE6420FEF761FD00225E
:10171C004FF400512846FEF7BBFE4FF47A73B2B279
:10172C000DF59F712046FFF77BFC4FF47A70FEF7A6
:10173C004FFDC5E70010024000100140000C0140B5
:10174C00000801402C000020003801406C000020F3
:10175C0000300140141A0008254B07B59A69032084
:10176C0042F001029A619A6902F001020092009A19
:10177C00DA6942F08052DA61DB6903F0805301933D
:10178C00019BFEF737FD00226FF00B001146FEF7B0
:10179C0043FD00226FF00A001146FEF73DFD0022CA
:1017AC006FF009001146FEF737FD00226FF00400C0
:1017BC001146FEF731FD00226FF003001146FEF7D3
:1017CC002BFD00226FF001001146FEF725FD0022D3
:1017DC004FF0FF301146FEF71FFD064A536823F009
:1017EC00E06343F08063536003B05DF804FB00BF1B
:1017FC0000100240000001407FB50268154B9A4270
:10180C0024D103F560439A6902A942F480529A618B
:10181C009B69114803F480530193019B2823029385
:10182C000223039303230593FEF752FD1023029327
:10183C00002302A9084803930493FEF749FD074AC5
:10184C00536843F0E06343F00103536007B05DF865
:10185C0004FB00BF00300140000C014000000140BF
:10186C007FB50268124B9A421FD103F558439A690F
:10187C0002A942F480429A619B690E4803F48043AA
:10188C000193019B4FF400730293022303930323F0
:10189C000593FEF71DFD4FF480630293002302A90C
:1018AC00044803930493FEF713FD07B05DF804FBA3
:1018BC0000380140000801407047FEE7FEE7FEE7F4
:1018CC00FEE770477047704708B5FEF76FFCBDE840
:1018DC000840FEF7F8BC00000F4B1A6842F00102FA
:1018EC001A6059680D4A0A405A601A6822F08472CC
:1018FC0022F480321A601A6822F480221A605A6824
:10190C0022F4FE025A604FF41F029A604FF00062FC
:10191C00034B9A60704700BF001002400000FFF8B4
:10192C0000ED00E0002103E00B4B5B584350043109
:10193C000A480B4B42189A42F6D30A4A02E000239B
:10194C0042F8043B084B9A42F9D3FFF7C5FF00F06D
:10195C000FF8FFF70DFE7047681A00080000002012
:10196C000C0000200C000020C4000020FEE700004A
:10197C0070B500250C4E0D4CA41BA410A54209D12A
:10198C0000F02EF800250A4E0A4CA41BA410A54208
:10199C0005D170BD56F8253098470135EEE756F85D
:1019AC00253098470135F2E7601A0008601A0008E4
:1019BC00601A0008641A000810B5431E0A449142CC
:1019CC0000D110BD11F8014B03F8014FF7E70346A6
:1019DC000244934200D1704703F8011BF9E7000061
:1019EC00F8B500BFF8BC08BC9E467047F8B500BF00
:0819FC00F8BC08BC9E467047D0
:101A040002030405060708090A0B0C0D0E0F10103B
:101A140000080000000C014000000000000C014020
:101A240000010000000801406C0000206C800000F0
:101A3400010203040506070809FFFCF9F606070876
:101A4400090A0B0C0000000000000000010203045E
:0C1A54000607080900000000010203045E
:041A60003101000848
:041A64000D01000868
:0C1A6800010000001000000000A24A0471
:0400000508001931A5
:00000001FF
